:100000000C9446000C9465000C9465000C946500FB
:100010000C9465000C9465000C9465000C946500CC
:100020000C9465000C9465000C9465000C946500BC
:100030000C9465000C9465000C9465000C946500AC
:100040000C9465000C9465000C9465000C9465009C
:100050000C9465000C9465000C9465000C9465008C
:100060000C9465000C9465000C9465000C9465007C
:100070000C9465000C9465000C9465000C9465006C
:100080000C9465000C9465000C94650011241FBE4F
:10009000CFEFD0E4DEBFCDBF11E0A0E0B1E0E2E8F9
:1000A000F2E000E00BBF02C007900D92AE30B10746
:1000B000D9F711E0AEE0B1E001C01D92A231B10765
:1000C000E1F70E9416010C943F010C940000CF93BD
:1000D000DF9300D01F92CDB7DEB789837B836A831D
:1000E00089818A3031F48A819B81BC018DE00E9434
:1000F000670080EC90E0FC018081882F90E08072A6
:1001000099270097B1F386EC90E02981FC012083C8
:1001100080E090E00F900F900F90DF91CF910895C5
:10012000CF93DF93CDB7DEB780911001909111018D
:1001300081309105D1F08130910538F08230910500
:1001400031F183309105A9F144C080910E018823DB
:1001500039F081E090E090931101809310013EC04E
:10016000109211011092100139C080910E01882364
:1001700039F081E090E090931101809310012EC03E
:1001800082E090E0909311018093100127C080914C
:100190000E01882339F083E090E090931101809361
:1001A00010011CC082E090E0909311018093100137
:1001B00015C080910E01882339F083E090E0909380
:1001C0001101809310010AC01092110110921001C8
:1001D00005C01092110110921001000080911001D1
:1001E000909111018130910571F08130910538F0C5
:1001F0008230910561F08330910569F010C081E093
:1002000080930F0110C082E080930F010CC082E048
:1002100080930F0108C081E080930F0104C08FEF2D
:1002200080930F010000DF91CF910895CF93DF936A
:10023000CDB7DEB781E290E0FC01108282E290E06F
:100240002FEFFC01208384E290E02FEFFC0120835C
:1002500085E290E0FC0110821092110110921001D1
:1002600080E290E0FC01808180930E010E9490006A
:1002700085E290E020910F01FC012083F1CFF894FA
:02028000FFCFAE
:0E028200000000020000000067000000000005
:00000001FF
