:100000000C9446000C9465000C9465000C946500FB
:100010000C9465000C9465000C9465000C946500CC
:100020000C9465000C9465000C9465000C946500BC
:100030000C9465000C9465000C9465000C946500AC
:100040000C9465000C9465000C9465000C9465009C
:100050000C9465000C9465000C9465000C9465008C
:100060000C9465000C9465000C9465000C9465007C
:100070000C9465000C9465000C9465000C9465006C
:100080000C9465000C9465000C94650011241FBE4F
:10009000CFEFD0E4DEBFCDBF11E0A0E0B1E0EAEFEA
:1000A000F1E000E00BBF02C007900D92AE30B10747
:1000B000D9F711E0AEE0B1E001C01D92A231B10765
:1000C000E1F70E94D8000C94FB000C940000CF9341
:1000D000DF9300D01F92CDB7DEB789837B836A831D
:1000E00089818A3031F48A819B81BC018DE00E9434
:1000F000670080EC90E0FC018081882F90E08072A6
:1001000099270097B1F386EC90E02981FC012083C8
:1001100080E090E00F900F900F90DF91CF910895C5
:10012000CF93DF93CDB7DEB780911001909111018D
:10013000009721F08130910589F020C080910E0157
:10014000882339F081E090E09093110180931001B1
:100150001AC0109211011092100115C080910E0169
:10016000882329F010921101109210010CC081E037
:1001700090E0909311018093100105C0109211013D
:1001800010921001000080911001909111010097D0
:1001900021F08130910529F008C081E080930F01A2
:1001A00004C081E080930F010000DF91CF9108959A
:1001B000CF93DF93CDB7DEB781E290E0FC011082F0
:1001C00082E290E02FEFFC01208384E290E02FEFA9
:1001D000FC01208385E290E0FC01108280E290E047
:1001E000FC01808180930E01109211011092100188
:0A01F0000E949000F3CFF894FFCFB7
:0E01FA0000000002000000006700000000008E
:00000001FF
