:100000000C9446000C9465000C9465000C946500FB
:100010000C9465000C9465000C9465000C946500CC
:100020000C9465000C9465000C9465000C946500BC
:100030000C9465000C9465000C9465000C946500AC
:100040000C9465000C9465000C9465000C9465009C
:100050000C9465000C9465000C9465000C9465008C
:100060000C9465000C9465000C9465000C9465007C
:100070000C9465000C9465000C9465000C9465006C
:100080000C9465000C9465000C94650011241FBE4F
:10009000CFEFD0E4DEBFCDBF11E0A0E0B1E0E8EFEC
:1000A000F2E000E00BBF02C007900D92AE30B10746
:1000B000D9F711E0AEE0B1E001C01D92A231B10765
:1000C000E1F70E9451010C947A010C940000CF9347
:1000D000DF9300D01F92CDB7DEB789837B836A831D
:1000E00089818A3031F48A819B81BC018DE00E9434
:1000F000670080EC90E0FC018081882F90E08072A6
:1001000099270097B1F386EC90E02981FC012083C8
:1001100080E090E00F900F900F90DF91CF910895C5
:10012000CF93DF93CDB7DEB780911001909111018D
:100130008230910509F459C08330910530F400975D
:1001400069F08130910541F183C08330910509F454
:1001500075C08430910509F476C07AC080910E0193
:10016000843039F481E090E0909311018093100184
:1001700012C080910E01803849F484E090E09093A1
:1001800011018093100110920F0105C0109211010E
:100190001092100162C061C080910E01843039F468
:1001A00081E090E090931101809310011DC0809137
:1001B0000E01882339F482E090E09093110180933E
:1001C000100112C080910E01803849F484E090E063
:1001D000909311018093100110920F0105C01092AD
:1001E00011011092100139C038C080910E0188238E
:1001F00039F482E090E090931101809310011DC0CA
:1002000080910E01823039F483E090E090931101E7
:100210008093100112C080910E01803849F484E06F
:1002200090E0909311018093100110920F0105C08E
:10023000109211011092100110C00FC01092110104
:10024000109210010AC0109211011092100105C005
:1002500010921101109210010000809110019091F4
:10026000110182309105B9F083309105B0F08330EF
:10027000910521F08430910551F010C090910F014B
:1002800081E0992309F080E080930F0107C010926C
:100290000F01000003C0000001C00000DF91CF91FA
:1002A0000895CF93DF93CDB7DEB781E290E0FC01F4
:1002B000108282E290E02FEFFC01208384E290E044
:1002C0002FEFFC01208385E290E0FC011082109268
:1002D00011011092100180E290E0FC018081809376
:1002E0000E010E94900085E290E020910F01FC0138
:0802F0002083F1CFF894FFCF49
:0E02F80000000002000000006700000000008F
:00000001FF
