:100000000C9446000C9465000C9465000C946500FB
:100010000C9465000C9465000C9465000C946500CC
:100020000C9465000C9465000C9465000C946500BC
:100030000C9465000C9465000C9465000C946500AC
:100040000C9465000C9465000C9465000C9465009C
:100050000C9465000C9465000C9465000C9465008C
:100060000C9465000C9465000C9465000C9465007C
:100070000C9465000C9465000C9465000C9465006C
:100080000C9465000C9465000C94650011241FBE4F
:10009000CFEFD0E4DEBFCDBF11E0A0E0B1E0E0E102
:1000A000F3E000E00BBF02C007900D92AE30B10745
:1000B000D9F711E0AEE0B1E001C01D92A231B10765
:1000C000E1F70E945D010C9486010C940000CF932F
:1000D000DF9300D01F92CDB7DEB789837B836A831D
:1000E00089818A3031F48A819B81BC018DE00E9434
:1000F000670080EC90E0FC018081882F90E08072A6
:1001000099270097B1F386EC90E02981FC012083C8
:1001100080E090E00F900F900F90DF91CF910895C5
:10012000CF93DF93CDB7DEB780911001909111018D
:100130008230910509F467C08330910530F400974F
:1001400069F081309105A1F0B0C08330910509F4C8
:100150007AC08430910509F496C0A7C081E090E090
:10016000909311018093100187E080930F01A2C04A
:1001700080910E01882339F481E090E09093110181
:10018000809310013FC080910E018130B9F48091BD
:100190000F01893060F482E090E090931101809328
:1001A000100180910F018F5F80930F012BC081E0C0
:1001B00090E090931101809310017CC080910E011A
:1001C0008230B9F480910F01882361F083E090E0E0
:1001D000909311018093100180910F0181508093C1
:1001E0000F0110C081E090E0909311018093100105
:1001F00061C084E090E0909311018093100110920F
:100200000F0158C057C080910E01813039F482E04F
:1002100090E0909311018093100114C080910E0121
:10022000833049F484E090E09093110180931001B1
:1002300010920F0107C081E090E09093110180932C
:10024000100138C037C080910E01823039F483E04C
:1002500090E0909311018093100114C080910E01E1
:10026000833049F484E090E0909311018093100171
:1002700010920F0107C081E090E0909311018093EC
:10028000100118C017C080910E01833039F484E04A
:1002900090E090931101809310010CC081E090E0F8
:1002A000909311018093100105C0109211011092DA
:1002B00010010000DF91CF910895CF93DF93CDB768
:1002C000DEB781E290E0FC01108282E290E02FEF45
:1002D000FC01208387E290E02FEFFC01208388E27D
:1002E00090E0FC011082109211011092100180E246
:1002F00090E0FC01808180930E010E94900088E2D2
:1003000090E020910F01FC012083F1CFF894FFCF02
:0E031000000000020000000067000000000076
:00000001FF
